{
  "contractName": "AirnextToken",
  "abi": [
    {
      "inputs": [
        {
          "internalType": "address",
          "name": "_addressAdminAirnext",
          "type": "address"
        },
        {
          "internalType": "address",
          "name": "_addressTokenSale",
          "type": "address"
        },
        {
          "internalType": "address",
          "name": "_addressTeam",
          "type": "address"
        },
        {
          "internalType": "address",
          "name": "_addressMarketing",
          "type": "address"
        }
      ],
      "stateMutability": "nonpayable",
      "type": "constructor"
    },
    {
      "anonymous": false,
      "inputs": [
        {
          "indexed": true,
          "internalType": "address",
          "name": "owner",
          "type": "address"
        },
        {
          "indexed": true,
          "internalType": "address",
          "name": "spender",
          "type": "address"
        },
        {
          "indexed": false,
          "internalType": "uint256",
          "name": "value",
          "type": "uint256"
        }
      ],
      "name": "Approval",
      "type": "event"
    },
    {
      "anonymous": false,
      "inputs": [
        {
          "indexed": true,
          "internalType": "address",
          "name": "from",
          "type": "address"
        },
        {
          "indexed": true,
          "internalType": "address",
          "name": "to",
          "type": "address"
        },
        {
          "indexed": false,
          "internalType": "uint256",
          "name": "value",
          "type": "uint256"
        }
      ],
      "name": "Transfer",
      "type": "event"
    },
    {
      "inputs": [
        {
          "internalType": "uint256",
          "name": "",
          "type": "uint256"
        }
      ],
      "name": "BigTransfers",
      "outputs": [
        {
          "internalType": "address",
          "name": "_sender",
          "type": "address"
        },
        {
          "internalType": "address payable",
          "name": "_recipient",
          "type": "address"
        },
        {
          "internalType": "uint256",
          "name": "_amount",
          "type": "uint256"
        },
        {
          "internalType": "uint256",
          "name": "loading",
          "type": "uint256"
        },
        {
          "internalType": "bool",
          "name": "completed",
          "type": "bool"
        }
      ],
      "stateMutability": "view",
      "type": "function",
      "constant": true
    },
    {
      "inputs": [],
      "name": "_founder",
      "outputs": [
        {
          "internalType": "address",
          "name": "",
          "type": "address"
        }
      ],
      "stateMutability": "view",
      "type": "function",
      "constant": true
    },
    {
      "inputs": [],
      "name": "_threshold",
      "outputs": [
        {
          "internalType": "uint256",
          "name": "",
          "type": "uint256"
        }
      ],
      "stateMutability": "view",
      "type": "function",
      "constant": true
    },
    {
      "inputs": [
        {
          "internalType": "address",
          "name": "owner",
          "type": "address"
        },
        {
          "internalType": "address",
          "name": "spender",
          "type": "address"
        }
      ],
      "name": "allowance",
      "outputs": [
        {
          "internalType": "uint256",
          "name": "",
          "type": "uint256"
        }
      ],
      "stateMutability": "view",
      "type": "function",
      "constant": true
    },
    {
      "inputs": [
        {
          "internalType": "address",
          "name": "spender",
          "type": "address"
        },
        {
          "internalType": "uint256",
          "name": "amount",
          "type": "uint256"
        }
      ],
      "name": "approve",
      "outputs": [
        {
          "internalType": "bool",
          "name": "",
          "type": "bool"
        }
      ],
      "stateMutability": "nonpayable",
      "type": "function"
    },
    {
      "inputs": [
        {
          "internalType": "address",
          "name": "account",
          "type": "address"
        }
      ],
      "name": "balanceOf",
      "outputs": [
        {
          "internalType": "uint256",
          "name": "",
          "type": "uint256"
        }
      ],
      "stateMutability": "view",
      "type": "function",
      "constant": true
    },
    {
      "inputs": [],
      "name": "currState",
      "outputs": [
        {
          "internalType": "enum AirnextToken.State",
          "name": "",
          "type": "uint8"
        }
      ],
      "stateMutability": "view",
      "type": "function",
      "constant": true
    },
    {
      "inputs": [
        {
          "internalType": "address",
          "name": "spender",
          "type": "address"
        },
        {
          "internalType": "uint256",
          "name": "subtractedValue",
          "type": "uint256"
        }
      ],
      "name": "decreaseAllowance",
      "outputs": [
        {
          "internalType": "bool",
          "name": "",
          "type": "bool"
        }
      ],
      "stateMutability": "nonpayable",
      "type": "function"
    },
    {
      "inputs": [
        {
          "internalType": "address",
          "name": "spender",
          "type": "address"
        },
        {
          "internalType": "uint256",
          "name": "addedValue",
          "type": "uint256"
        }
      ],
      "name": "increaseAllowance",
      "outputs": [
        {
          "internalType": "bool",
          "name": "",
          "type": "bool"
        }
      ],
      "stateMutability": "nonpayable",
      "type": "function"
    },
    {
      "inputs": [],
      "name": "name",
      "outputs": [
        {
          "internalType": "string",
          "name": "",
          "type": "string"
        }
      ],
      "stateMutability": "view",
      "type": "function",
      "constant": true
    },
    {
      "inputs": [
        {
          "internalType": "uint256",
          "name": "threshold",
          "type": "uint256"
        }
      ],
      "name": "setMinimumThreshold",
      "outputs": [],
      "stateMutability": "nonpayable",
      "type": "function"
    },
    {
      "inputs": [],
      "name": "symbol",
      "outputs": [
        {
          "internalType": "string",
          "name": "",
          "type": "string"
        }
      ],
      "stateMutability": "view",
      "type": "function",
      "constant": true
    },
    {
      "inputs": [],
      "name": "totalSupply",
      "outputs": [
        {
          "internalType": "uint256",
          "name": "",
          "type": "uint256"
        }
      ],
      "stateMutability": "view",
      "type": "function",
      "constant": true
    },
    {
      "inputs": [
        {
          "internalType": "address",
          "name": "recipient",
          "type": "address"
        },
        {
          "internalType": "uint256",
          "name": "amount",
          "type": "uint256"
        }
      ],
      "name": "transfer",
      "outputs": [
        {
          "internalType": "bool",
          "name": "",
          "type": "bool"
        }
      ],
      "stateMutability": "nonpayable",
      "type": "function"
    },
    {
      "inputs": [
        {
          "internalType": "address",
          "name": "sender",
          "type": "address"
        },
        {
          "internalType": "address",
          "name": "recipient",
          "type": "address"
        },
        {
          "internalType": "uint256",
          "name": "amount",
          "type": "uint256"
        }
      ],
      "name": "transferFrom",
      "outputs": [
        {
          "internalType": "bool",
          "name": "",
          "type": "bool"
        }
      ],
      "stateMutability": "nonpayable",
      "type": "function"
    },
    {
      "inputs": [],
      "name": "decimals",
      "outputs": [
        {
          "internalType": "uint8",
          "name": "",
          "type": "uint8"
        }
      ],
      "stateMutability": "pure",
      "type": "function",
      "constant": true
    },
    {
      "inputs": [
        {
          "internalType": "address",
          "name": "_addressAdminAirnext",
          "type": "address"
        },
        {
          "internalType": "address",
          "name": "_addressTokenSale",
          "type": "address"
        },
        {
          "internalType": "address",
          "name": "_addressTeam",
          "type": "address"
        },
        {
          "internalType": "address",
          "name": "_addressMarketing",
          "type": "address"
        }
      ],
      "name": "changeAddressPool",
      "outputs": [
        {
          "internalType": "bool",
          "name": "",
          "type": "bool"
        }
      ],
      "stateMutability": "nonpayable",
      "type": "function"
    },
    {
      "inputs": [
        {
          "internalType": "uint256",
          "name": "_index",
          "type": "uint256"
        }
      ],
      "name": "validateTransfer",
      "outputs": [
        {
          "internalType": "bool",
          "name": "",
          "type": "bool"
        }
      ],
      "stateMutability": "nonpayable",
      "type": "function"
    },
    {
      "inputs": [
        {
          "internalType": "uint256",
          "name": "_index",
          "type": "uint256"
        }
      ],
      "name": "refuseTransfer",
      "outputs": [
        {
          "internalType": "bool",
          "name": "",
          "type": "bool"
        }
      ],
      "stateMutability": "nonpayable",
      "type": "function"
    },
    {
      "inputs": [
        {
          "internalType": "address",
          "name": "_sender",
          "type": "address"
        },
        {
          "internalType": "address payable",
          "name": "_recipient",
          "type": "address"
        },
        {
          "internalType": "uint256",
          "name": "_amount",
          "type": "uint256"
        }
      ],
      "name": "createTransferLatency",
      "outputs": [
        {
          "internalType": "bool",
          "name": "",
          "type": "bool"
        }
      ],
      "stateMutability": "nonpayable",
      "type": "function"
    },
    {
      "inputs": [
        {
          "internalType": "uint256",
          "name": "_index",
          "type": "uint256"
        }
      ],
      "name": "transferLatency",
      "outputs": [
        {
          "internalType": "bool",
          "name": "",
          "type": "bool"
        }
      ],
      "stateMutability": "nonpayable",
      "type": "function"
    }
  ],
  "bytecode": "0x60806040523480156200001157600080fd5b506040516200332b3803806200332b8339818101604052810190620000379190620004c1565b6040518060400160405280600781526020017f4169726e657874000000000000000000000000000000000000000000000000008152506040518060400160405280600481526020017f4149524e0000000000000000000000000000000000000000000000000000000081525033600560006101000a81548173ffffffffffffffffffffffffffffffffffffffff021916908373ffffffffffffffffffffffffffffffffffffffff1602179055508160039080519060200190620000fc929190620003fa565b50806004908051906020019062000115929190620003fa565b50505083600760006101000a81548173ffffffffffffffffffffffffffffffffffffffff021916908373ffffffffffffffffffffffffffffffffffffffff16021790555082600860006101000a81548173ffffffffffffffffffffffffffffffffffffffff021916908373ffffffffffffffffffffffffffffffffffffffff16021790555081600960006101000a81548173ffffffffffffffffffffffffffffffffffffffff021916908373ffffffffffffffffffffffffffffffffffffffff16021790555080600a60006101000a81548173ffffffffffffffffffffffffffffffffffffffff021916908373ffffffffffffffffffffffffffffffffffffffff1602179055506200023484650969cc12cc006200029060201b60201c565b6200024c83650969cc12cc006200029060201b60201c565b620002648265010bc1576c006200029060201b60201c565b6200027c8165010bc1576c006200029060201b60201c565b620186a06006819055505050505062000719565b600073ffffffffffffffffffffffffffffffffffffffff168273ffffffffffffffffffffffffffffffffffffffff16141562000303576040517f08c379a0000000000000000000000000000000000000000000000000000000008152600401620002fa9062000580565b60405180910390fd5b6200031760008383620003f560201b60201c565b80600260008282546200032b9190620005d0565b92505081905550806000808473ffffffffffffffffffffffffffffffffffffffff1673ffffffffffffffffffffffffffffffffffffffff1681526020019081526020016000206000828254620003829190620005d0565b925050819055508173ffffffffffffffffffffffffffffffffffffffff16600073ffffffffffffffffffffffffffffffffffffffff167fddf252ad1be2c89b69c2b068fc378daa952ba7f163c4a11628f55a4df523b3ef83604051620003e99190620005a2565b60405180910390a35050565b505050565b82805462000408906200066b565b90600052602060002090601f0160209004810192826200042c576000855562000478565b82601f106200044757805160ff191683800117855562000478565b8280016001018555821562000478579182015b82811115620004775782518255916020019190600101906200045a565b5b5090506200048791906200048b565b5090565b5b80821115620004a65760008160009055506001016200048c565b5090565b600081519050620004bb81620006ff565b92915050565b60008060008060808587031215620004d857600080fd5b6000620004e887828801620004aa565b9450506020620004fb87828801620004aa565b93505060406200050e87828801620004aa565b92505060606200052187828801620004aa565b91505092959194509250565b60006200053c601f83620005bf565b91507f45524332303a206d696e7420746f20746865207a65726f2061646472657373006000830152602082019050919050565b6200057a8162000661565b82525050565b600060208201905081810360008301526200059b816200052d565b9050919050565b6000602082019050620005b960008301846200056f565b92915050565b600082825260208201905092915050565b6000620005dd8262000661565b9150620005ea8362000661565b9250827fffffffffffffffffffffffffffffffffffffffffffffffffffffffffffffffff03821115620006225762000621620006a1565b5b828201905092915050565b60006200063a8262000641565b9050919050565b600073ffffffffffffffffffffffffffffffffffffffff82169050919050565b6000819050919050565b600060028204905060018216806200068457607f821691505b602082108114156200069b576200069a620006d0565b5b50919050565b7f4e487b7100000000000000000000000000000000000000000000000000000000600052601160045260246000fd5b7f4e487b7100000000000000000000000000000000000000000000000000000000600052602260045260246000fd5b6200070a816200062d565b81146200071657600080fd5b50565b612c0280620007296000396000f3fe608060405234801561001057600080fd5b50600436106101375760003560e01c806367058d29116100b8578063a457c2d71161007c578063a457c2d71461038c578063a81e27c6146103bc578063a9059cbb146103f0578063afe0104314610420578063cbd07c1e1461043e578063dd62ed3e1461046e57610137565b806367058d29146102d45780636b6bcf5a146102f057806370a08231146103205780637f3c81601461035057806395d89b411461036e57610137565b806323b872dd116100ff57806323b872dd146101f6578063313ce56714610226578063395093511461024457806355dc13a0146102745780636074937c146102a457610137565b8063069bd9741461013c57806306fdde031461016c578063095ea7b31461018a57806309b637bc146101ba57806318160ddd146101d8575b600080fd5b61015660048036038101906101519190612393565b61049e565b6040516101639190612787565b60405180910390f35b610174610a0f565b60405161018191906127bd565b60405180910390f35b6101a4600480360381019061019f9190612357565b610aa1565b6040516101b19190612787565b60405180910390f35b6101c2610abf565b6040516101cf9190612719565b60405180910390f35b6101e0610ae5565b6040516101ed91906128bf565b60405180910390f35b610210600480360381019061020b9190612308565b610aef565b60405161021d9190612787565b60405180910390f35b61022e610bf0565b60405161023b91906128da565b60405180910390f35b61025e60048036038101906102599190612357565b610bf9565b60405161026b9190612787565b60405180910390f35b61028e60048036038101906102899190612393565b610ca5565b60405161029b9190612787565b60405180910390f35b6102be60048036038101906102b99190612256565b61105b565b6040516102cb9190612787565b60405180910390f35b6102ee60048036038101906102e99190612393565b611284565b005b61030a600480360381019061030591906122a5565b6112e8565b6040516103179190612787565b60405180910390f35b61033a600480360381019061033591906121f1565b61155c565b60405161034791906128bf565b60405180910390f35b6103586115a4565b60405161036591906128bf565b60405180910390f35b6103766115aa565b60405161038391906127bd565b60405180910390f35b6103a660048036038101906103a19190612357565b61163c565b6040516103b39190612787565b60405180910390f35b6103d660048036038101906103d19190612393565b611730565b6040516103e7959493929190612734565b60405180910390f35b61040a60048036038101906104059190612357565b6117b3565b6040516104179190612787565b60405180910390f35b6104286117d1565b60405161043591906127a2565b60405180910390f35b61045860048036038101906104539190612393565b6117e4565b6040516104659190612787565b60405180910390f35b6104886004803603810190610483919061221a565b611cd4565b60405161049591906128bf565b60405180910390f35b600080600b60008481526020019081526020016000209050600760009054906101000a900473ffffffffffffffffffffffffffffffffffffffff1673ffffffffffffffffffffffffffffffffffffffff163373ffffffffffffffffffffffffffffffffffffffff16148061055f5750600860009054906101000a900473ffffffffffffffffffffffffffffffffffffffff1673ffffffffffffffffffffffffffffffffffffffff163373ffffffffffffffffffffffffffffffffffffffff16145b806105b75750600960009054906101000a900473ffffffffffffffffffffffffffffffffffffffff1673ffffffffffffffffffffffffffffffffffffffff163373ffffffffffffffffffffffffffffffffffffffff16145b6105c057600080fd5b600015158160030160003373ffffffffffffffffffffffffffffffffffffffff1673ffffffffffffffffffffffffffffffffffffffff16815260200190815260200160002060009054906101000a900460ff1615151461061f57600080fd5b60018160030160003373ffffffffffffffffffffffffffffffffffffffff1673ffffffffffffffffffffffffffffffffffffffff16815260200190815260200160002060006101000a81548160ff02191690831515021790555060011515816003016000600760009054906101000a900473ffffffffffffffffffffffffffffffffffffffff1673ffffffffffffffffffffffffffffffffffffffff1673ffffffffffffffffffffffffffffffffffffffff16815260200190815260200160002060009054906101000a900460ff161515148015610771575060011515816003016000600860009054906101000a900473ffffffffffffffffffffffffffffffffffffffff1673ffffffffffffffffffffffffffffffffffffffff1673ffffffffffffffffffffffffffffffffffffffff16815260200190815260200160002060009054906101000a900460ff161515145b80610870575060011515816003016000600960009054906101000a900473ffffffffffffffffffffffffffffffffffffffff1673ffffffffffffffffffffffffffffffffffffffff1673ffffffffffffffffffffffffffffffffffffffff16815260200190815260200160002060009054906101000a900460ff16151514801561086f575060011515816003016000600860009054906101000a900473ffffffffffffffffffffffffffffffffffffffff1673ffffffffffffffffffffffffffffffffffffffff1673ffffffffffffffffffffffffffffffffffffffff16815260200190815260200160002060009054906101000a900460ff161515145b5b8061096f575060011515816003016000600960009054906101000a900473ffffffffffffffffffffffffffffffffffffffff1673ffffffffffffffffffffffffffffffffffffffff1673ffffffffffffffffffffffffffffffffffffffff16815260200190815260200160002060009054906101000a900460ff16151514801561096e575060011515816003016000600760009054906101000a900473ffffffffffffffffffffffffffffffffffffffff1673ffffffffffffffffffffffffffffffffffffffff1673ffffffffffffffffffffffffffffffffffffffff16815260200190815260200160002060009054906101000a900460ff161515145b5b156109965760018160050160006101000a81548160ff0219169083151502179055506109b4565b60008160050160006101000a81548160ff0219169083151502179055505b6002600d60006101000a81548160ff02191690836002811115610a00577f4e487b7100000000000000000000000000000000000000000000000000000000600052602160045260246000fd5b02179055506001915050919050565b606060038054610a1e90612a5a565b80601f0160208091040260200160405190810160405280929190818152602001828054610a4a90612a5a565b8015610a975780601f10610a6c57610100808354040283529160200191610a97565b820191906000526020600020905b815481529060010190602001808311610a7a57829003601f168201915b5050505050905090565b6000610ab5610aae611d5b565b8484611d63565b6001905092915050565b600560009054906101000a900473ffffffffffffffffffffffffffffffffffffffff1681565b6000600254905090565b6000610afc848484611f2e565b6000600160008673ffffffffffffffffffffffffffffffffffffffff1673ffffffffffffffffffffffffffffffffffffffff1681526020019081526020016000206000610b47611d5b565b73ffffffffffffffffffffffffffffffffffffffff1673ffffffffffffffffffffffffffffffffffffffff16815260200190815260200160002054905082811015610bc7576040517f08c379a0000000000000000000000000000000000000000000000000000000008152600401610bbe9061283f565b60405180910390fd5b610be485610bd3611d5b565b8584610bdf9190612967565b611d63565b60019150509392505050565b60006005905090565b6000610c9b610c06611d5b565b848460016000610c14611d5b565b73ffffffffffffffffffffffffffffffffffffffff1673ffffffffffffffffffffffffffffffffffffffff16815260200190815260200160002060008873ffffffffffffffffffffffffffffffffffffffff1673ffffffffffffffffffffffffffffffffffffffff16815260200190815260200160002054610c969190612911565b611d63565b6001905092915050565b600080600b600084815260200190815260200160002090503373ffffffffffffffffffffffffffffffffffffffff168160000160009054906101000a900473ffffffffffffffffffffffffffffffffffffffff1673ffffffffffffffffffffffffffffffffffffffff1614610d1957600080fd5b60008060003373ffffffffffffffffffffffffffffffffffffffff1673ffffffffffffffffffffffffffffffffffffffff16815260200190815260200160002054118015610da8575080600201546000803373ffffffffffffffffffffffffffffffffffffffff1673ffffffffffffffffffffffffffffffffffffffff16815260200190815260200160002054115b610db157600080fd5b600115158160050160009054906101000a900460ff1615151480610df95750428160040154108015610df85750600115158160050160009054906101000a900460ff161515145b5b15610fff5780600201546000808360010160009054906101000a900473ffffffffffffffffffffffffffffffffffffffff1673ffffffffffffffffffffffffffffffffffffffff1673ffffffffffffffffffffffffffffffffffffffff1681526020019081526020016000206000828254610e749190612911565b9250508190555080600201546000808360000160009054906101000a900473ffffffffffffffffffffffffffffffffffffffff1673ffffffffffffffffffffffffffffffffffffffff1673ffffffffffffffffffffffffffffffffffffffff1681526020019081526020016000206000828254610ef19190612967565b925050819055508060010160009054906101000a900473ffffffffffffffffffffffffffffffffffffffff1673ffffffffffffffffffffffffffffffffffffffff168160000160009054906101000a900473ffffffffffffffffffffffffffffffffffffffff1673ffffffffffffffffffffffffffffffffffffffff167fddf252ad1be2c89b69c2b068fc378daa952ba7f163c4a11628f55a4df523b3ef8360020154604051610fa191906128bf565b60405180910390a36002600d60006101000a81548160ff02191690836002811115610ff5577f4e487b7100000000000000000000000000000000000000000000000000000000600052602160045260246000fd5b0217905550611051565b6000600d60006101000a81548160ff0219169083600281111561104b577f4e487b7100000000000000000000000000000000000000000000000000000000600052602160045260246000fd5b02179055505b6001915050919050565b600080600b6000600c600081548092919061107590612a8c565b919050558152602001908152602001600020905060008060008773ffffffffffffffffffffffffffffffffffffffff1673ffffffffffffffffffffffffffffffffffffffff168152602001908152602001600020541180156111145750826000808773ffffffffffffffffffffffffffffffffffffffff1673ffffffffffffffffffffffffffffffffffffffff16815260200190815260200160002054115b61111d57600080fd5b60065483101561112c57600080fd5b8473ffffffffffffffffffffffffffffffffffffffff163373ffffffffffffffffffffffffffffffffffffffff161461116457600080fd5b848160000160006101000a81548173ffffffffffffffffffffffffffffffffffffffff021916908373ffffffffffffffffffffffffffffffffffffffff160217905550838160010160006101000a81548173ffffffffffffffffffffffffffffffffffffffff021916908373ffffffffffffffffffffffffffffffffffffffff16021790555082816002018190555060008160050160006101000a81548160ff021916908315150217905550620151804261121f9190612911565b81600401819055506001600d60006101000a81548160ff02191690836002811115611273577f4e487b7100000000000000000000000000000000000000000000000000000000600052602160045260246000fd5b021790555060019150509392505050565b600560009054906101000a900473ffffffffffffffffffffffffffffffffffffffff1673ffffffffffffffffffffffffffffffffffffffff163373ffffffffffffffffffffffffffffffffffffffff16146112de57600080fd5b8060068190555050565b6000600760009054906101000a900473ffffffffffffffffffffffffffffffffffffffff1673ffffffffffffffffffffffffffffffffffffffff163373ffffffffffffffffffffffffffffffffffffffff1614806113935750600860009054906101000a900473ffffffffffffffffffffffffffffffffffffffff1673ffffffffffffffffffffffffffffffffffffffff163373ffffffffffffffffffffffffffffffffffffffff16145b806113eb5750600960009054906101000a900473ffffffffffffffffffffffffffffffffffffffff1673ffffffffffffffffffffffffffffffffffffffff163373ffffffffffffffffffffffffffffffffffffffff16145b806114435750600a60009054906101000a900473ffffffffffffffffffffffffffffffffffffffff1673ffffffffffffffffffffffffffffffffffffffff163373ffffffffffffffffffffffffffffffffffffffff16145b61144c57600080fd5b84600760006101000a81548173ffffffffffffffffffffffffffffffffffffffff021916908373ffffffffffffffffffffffffffffffffffffffff16021790555083600860006101000a81548173ffffffffffffffffffffffffffffffffffffffff021916908373ffffffffffffffffffffffffffffffffffffffff16021790555082600960006101000a81548173ffffffffffffffffffffffffffffffffffffffff021916908373ffffffffffffffffffffffffffffffffffffffff16021790555081600a60006101000a81548173ffffffffffffffffffffffffffffffffffffffff021916908373ffffffffffffffffffffffffffffffffffffffff16021790555060019050949350505050565b60008060008373ffffffffffffffffffffffffffffffffffffffff1673ffffffffffffffffffffffffffffffffffffffff168152602001908152602001600020549050919050565b60065481565b6060600480546115b990612a5a565b80601f01602080910402602001604051908101604052809291908181526020018280546115e590612a5a565b80156116325780601f1061160757610100808354040283529160200191611632565b820191906000526020600020905b81548152906001019060200180831161161557829003601f168201915b5050505050905090565b6000806001600061164b611d5b565b73ffffffffffffffffffffffffffffffffffffffff1673ffffffffffffffffffffffffffffffffffffffff16815260200190815260200160002060008573ffffffffffffffffffffffffffffffffffffffff1673ffffffffffffffffffffffffffffffffffffffff16815260200190815260200160002054905082811015611708576040517f08c379a00000000000000000000000000000000000000000000000000000000081526004016116ff9061289f565b60405180910390fd5b611725611713611d5b565b8585846117209190612967565b611d63565b600191505092915050565b600b6020528060005260406000206000915090508060000160009054906101000a900473ffffffffffffffffffffffffffffffffffffffff16908060010160009054906101000a900473ffffffffffffffffffffffffffffffffffffffff16908060020154908060040154908060050160009054906101000a900460ff16905085565b60006117c76117c0611d5b565b8484611f2e565b6001905092915050565b600d60009054906101000a900460ff1681565b600080600b60008481526020019081526020016000209050600760009054906101000a900473ffffffffffffffffffffffffffffffffffffffff1673ffffffffffffffffffffffffffffffffffffffff163373ffffffffffffffffffffffffffffffffffffffff1614806118a55750600860009054906101000a900473ffffffffffffffffffffffffffffffffffffffff1673ffffffffffffffffffffffffffffffffffffffff163373ffffffffffffffffffffffffffffffffffffffff16145b806118fd5750600960009054906101000a900473ffffffffffffffffffffffffffffffffffffffff1673ffffffffffffffffffffffffffffffffffffffff163373ffffffffffffffffffffffffffffffffffffffff16145b61190657600080fd5b60008160030160003373ffffffffffffffffffffffffffffffffffffffff1673ffffffffffffffffffffffffffffffffffffffff16815260200190815260200160002060006101000a81548160ff02191690831515021790555060001515816003016000600760009054906101000a900473ffffffffffffffffffffffffffffffffffffffff1673ffffffffffffffffffffffffffffffffffffffff1673ffffffffffffffffffffffffffffffffffffffff16815260200190815260200160002060009054906101000a900460ff161515148015611a58575060001515816003016000600860009054906101000a900473ffffffffffffffffffffffffffffffffffffffff1673ffffffffffffffffffffffffffffffffffffffff1673ffffffffffffffffffffffffffffffffffffffff16815260200190815260200160002060009054906101000a900460ff161515145b80611b57575060001515816003016000600960009054906101000a900473ffffffffffffffffffffffffffffffffffffffff1673ffffffffffffffffffffffffffffffffffffffff1673ffffffffffffffffffffffffffffffffffffffff16815260200190815260200160002060009054906101000a900460ff161515148015611b56575060001515816003016000600860009054906101000a900473ffffffffffffffffffffffffffffffffffffffff1673ffffffffffffffffffffffffffffffffffffffff1673ffffffffffffffffffffffffffffffffffffffff16815260200190815260200160002060009054906101000a900460ff161515145b5b80611c56575060001515816003016000600960009054906101000a900473ffffffffffffffffffffffffffffffffffffffff1673ffffffffffffffffffffffffffffffffffffffff1673ffffffffffffffffffffffffffffffffffffffff16815260200190815260200160002060009054906101000a900460ff161515148015611c55575060001515816003016000600760009054906101000a900473ffffffffffffffffffffffffffffffffffffffff1673ffffffffffffffffffffffffffffffffffffffff1673ffffffffffffffffffffffffffffffffffffffff16815260200190815260200160002060009054906101000a900460ff161515145b5b15611c795760008160050160006101000a81548160ff0219169083151502179055505b6000600d60006101000a81548160ff02191690836002811115611cc5577f4e487b7100000000000000000000000000000000000000000000000000000000600052602160045260246000fd5b02179055506001915050919050565b6000600160008473ffffffffffffffffffffffffffffffffffffffff1673ffffffffffffffffffffffffffffffffffffffff16815260200190815260200160002060008373ffffffffffffffffffffffffffffffffffffffff1673ffffffffffffffffffffffffffffffffffffffff16815260200190815260200160002054905092915050565b600033905090565b600073ffffffffffffffffffffffffffffffffffffffff168373ffffffffffffffffffffffffffffffffffffffff161415611dd3576040517f08c379a0000000000000000000000000000000000000000000000000000000008152600401611dca9061287f565b60405180910390fd5b600073ffffffffffffffffffffffffffffffffffffffff168273ffffffffffffffffffffffffffffffffffffffff161415611e43576040517f08c379a0000000000000000000000000000000000000000000000000000000008152600401611e3a906127ff565b60405180910390fd5b80600160008573ffffffffffffffffffffffffffffffffffffffff1673ffffffffffffffffffffffffffffffffffffffff16815260200190815260200160002060008473ffffffffffffffffffffffffffffffffffffffff1673ffffffffffffffffffffffffffffffffffffffff168152602001908152602001600020819055508173ffffffffffffffffffffffffffffffffffffffff168373ffffffffffffffffffffffffffffffffffffffff167f8c5be1e5ebec7d5bd14f71427d1e84f3dd0314c0f7b2291e5b200ac8c7c3b92583604051611f2191906128bf565b60405180910390a3505050565b600073ffffffffffffffffffffffffffffffffffffffff168373ffffffffffffffffffffffffffffffffffffffff161415611f9e576040517f08c379a0000000000000000000000000000000000000000000000000000000008152600401611f959061285f565b60405180910390fd5b600073ffffffffffffffffffffffffffffffffffffffff168273ffffffffffffffffffffffffffffffffffffffff16141561200e576040517f08c379a0000000000000000000000000000000000000000000000000000000008152600401612005906127df565b60405180910390fd5b6120198383836121ad565b60008060008573ffffffffffffffffffffffffffffffffffffffff1673ffffffffffffffffffffffffffffffffffffffff1681526020019081526020016000205490508181101561209f576040517f08c379a00000000000000000000000000000000000000000000000000000000081526004016120969061281f565b60405180910390fd5b81816120ab9190612967565b6000808673ffffffffffffffffffffffffffffffffffffffff1673ffffffffffffffffffffffffffffffffffffffff16815260200190815260200160002081905550816000808573ffffffffffffffffffffffffffffffffffffffff1673ffffffffffffffffffffffffffffffffffffffff168152602001908152602001600020600082825461213b9190612911565b925050819055508273ffffffffffffffffffffffffffffffffffffffff168473ffffffffffffffffffffffffffffffffffffffff167fddf252ad1be2c89b69c2b068fc378daa952ba7f163c4a11628f55a4df523b3ef8460405161219f91906128bf565b60405180910390a350505050565b505050565b6000813590506121c181612b87565b92915050565b6000813590506121d681612b9e565b92915050565b6000813590506121eb81612bb5565b92915050565b60006020828403121561220357600080fd5b6000612211848285016121b2565b91505092915050565b6000806040838503121561222d57600080fd5b600061223b858286016121b2565b925050602061224c858286016121b2565b9150509250929050565b60008060006060848603121561226b57600080fd5b6000612279868287016121b2565b935050602061228a868287016121c7565b925050604061229b868287016121dc565b9150509250925092565b600080600080608085870312156122bb57600080fd5b60006122c9878288016121b2565b94505060206122da878288016121b2565b93505060406122eb878288016121b2565b92505060606122fc878288016121b2565b91505092959194509250565b60008060006060848603121561231d57600080fd5b600061232b868287016121b2565b935050602061233c868287016121b2565b925050604061234d868287016121dc565b9150509250925092565b6000806040838503121561236a57600080fd5b6000612378858286016121b2565b9250506020612389858286016121dc565b9150509250929050565b6000602082840312156123a557600080fd5b60006123b3848285016121dc565b91505092915050565b6123c5816129ad565b82525050565b6123d48161299b565b82525050565b6123e3816129bf565b82525050565b6123f281612a15565b82525050565b6000612403826128f5565b61240d8185612900565b935061241d818560208601612a27565b61242681612b62565b840191505092915050565b600061243e602383612900565b91507f45524332303a207472616e7366657220746f20746865207a65726f206164647260008301527f65737300000000000000000000000000000000000000000000000000000000006020830152604082019050919050565b60006124a4602283612900565b91507f45524332303a20617070726f766520746f20746865207a65726f20616464726560008301527f73730000000000000000000000000000000000000000000000000000000000006020830152604082019050919050565b600061250a602683612900565b91507f45524332303a207472616e7366657220616d6f756e742065786365656473206260008301527f616c616e636500000000000000000000000000000000000000000000000000006020830152604082019050919050565b6000612570602883612900565b91507f45524332303a207472616e7366657220616d6f756e742065786365656473206160008301527f6c6c6f77616e63650000000000000000000000000000000000000000000000006020830152604082019050919050565b60006125d6602583612900565b91507f45524332303a207472616e736665722066726f6d20746865207a65726f20616460008301527f64726573730000000000000000000000000000000000000000000000000000006020830152604082019050919050565b600061263c602483612900565b91507f45524332303a20617070726f76652066726f6d20746865207a65726f2061646460008301527f72657373000000000000000000000000000000000000000000000000000000006020830152604082019050919050565b60006126a2602583612900565b91507f45524332303a2064656372656173656420616c6c6f77616e63652062656c6f7760008301527f207a65726f0000000000000000000000000000000000000000000000000000006020830152604082019050919050565b612704816129fe565b82525050565b61271381612a08565b82525050565b600060208201905061272e60008301846123cb565b92915050565b600060a08201905061274960008301886123cb565b61275660208301876123bc565b61276360408301866126fb565b61277060608301856126fb565b61277d60808301846123da565b9695505050505050565b600060208201905061279c60008301846123da565b92915050565b60006020820190506127b760008301846123e9565b92915050565b600060208201905081810360008301526127d781846123f8565b905092915050565b600060208201905081810360008301526127f881612431565b9050919050565b6000602082019050818103600083015261281881612497565b9050919050565b60006020820190508181036000830152612838816124fd565b9050919050565b6000602082019050818103600083015261285881612563565b9050919050565b60006020820190508181036000830152612878816125c9565b9050919050565b600060208201905081810360008301526128988161262f565b9050919050565b600060208201905081810360008301526128b881612695565b9050919050565b60006020820190506128d460008301846126fb565b92915050565b60006020820190506128ef600083018461270a565b92915050565b600081519050919050565b600082825260208201905092915050565b600061291c826129fe565b9150612927836129fe565b9250827fffffffffffffffffffffffffffffffffffffffffffffffffffffffffffffffff0382111561295c5761295b612ad5565b5b828201905092915050565b6000612972826129fe565b915061297d836129fe565b9250828210156129905761298f612ad5565b5b828203905092915050565b60006129a6826129de565b9050919050565b60006129b8826129de565b9050919050565b60008115159050919050565b60008190506129d982612b73565b919050565b600073ffffffffffffffffffffffffffffffffffffffff82169050919050565b6000819050919050565b600060ff82169050919050565b6000612a20826129cb565b9050919050565b60005b83811015612a45578082015181840152602081019050612a2a565b83811115612a54576000848401525b50505050565b60006002820490506001821680612a7257607f821691505b60208210811415612a8657612a85612b33565b5b50919050565b6000612a97826129fe565b91507fffffffffffffffffffffffffffffffffffffffffffffffffffffffffffffffff821415612aca57612ac9612ad5565b5b600182019050919050565b7f4e487b7100000000000000000000000000000000000000000000000000000000600052601160045260246000fd5b7f4e487b7100000000000000000000000000000000000000000000000000000000600052602160045260246000fd5b7f4e487b7100000000000000000000000000000000000000000000000000000000600052602260045260246000fd5b6000601f19601f8301169050919050565b60038110612b8457612b83612b04565b5b50565b612b908161299b565b8114612b9b57600080fd5b50565b612ba7816129ad565b8114612bb257600080fd5b50565b612bbe816129fe565b8114612bc957600080fd5b5056fea26469706673582212204696d4a20b43c096c626a43819f9303de46e657f97708692fa63212e0465eae364736f6c63430008000033",
  "immutableReferences": {},
  "source": "// SPDX-License-Identifier: MIT\npragma solidity >=0.7.0 <=0.8.7;\n\nimport \"./contracts/token/ERC20/ERC20.sol\";\n\ncontract AirnextToken is ERC20 {\n    address  addressAdminAirnext;\n    address  addressTokenSale;\n    address  addressTeam;\n    address  addressMarketing;\n    \n    uint256  constant tsSupply = 103500000 * 10 ** 5; // 45% pour les ventes de jeton\n    uint256  constant AirnextSupply = 103500000 * 10 ** 5; // 45% pour Airnext\n    uint256  constant addressTeamSupply = 11500000 * 10 ** 5; //5% pour la addressTeam\n    uint256  constant marketSupply = 11500000 * 10 ** 5; //5% pour le addressMarketing\n\n    \n    mapping (uint => Latency) public BigTransfers;\n    uint index;\n    \n    enum State{REJECTED, PENDING, VALIDATED}\n    \n    State public currState;\n    \n    struct Latency{\n        address _sender;\n        address payable _recipient;\n        uint256 _amount;\n        mapping (address => bool) TransferEvent; \n        uint loading;\n        bool completed;\n    }\n    \n\n    constructor(address _addressAdminAirnext, address _addressTokenSale, address _addressTeam, address _addressMarketing) ERC20(\"Airnext\", \"AIRN\") {\n        addressAdminAirnext = _addressAdminAirnext;\n        addressTokenSale = _addressTokenSale;\n        addressTeam = _addressTeam;\n        addressMarketing = _addressMarketing;\n        \n        _mint(_addressAdminAirnext, AirnextSupply);\n        _mint(_addressTokenSale, tsSupply);\n        _mint(_addressTeam, addressTeamSupply);\n        _mint(_addressMarketing, marketSupply);\n        \n        _threshold = 100000; // Referencer le seuil.\n    }\n\n    function decimals() public pure override returns(uint8){\n        return 5;\n    }\n    \n    function changeAddressPool(address _addressAdminAirnext, address _addressTokenSale, address _addressTeam, address _addressMarketing) public returns(bool){\n        \n        require(msg.sender == addressAdminAirnext || msg.sender == addressTokenSale || msg.sender == addressTeam || msg.sender == addressMarketing);\n        \n        addressAdminAirnext = _addressAdminAirnext;\n        addressTokenSale = _addressTokenSale;\n        addressTeam = _addressTeam;\n        addressMarketing = _addressMarketing;\n\n        return true;\n        \n    }\n    \n    \n    function validateTransfer(uint _index) public returns(bool){ // Validation du Transfer des administrateurs\n      Latency storage thisBigTransfers = BigTransfers[_index];\n      \n      require (msg.sender == addressAdminAirnext || msg.sender == addressTokenSale || msg.sender == addressTeam);\n      require(thisBigTransfers.TransferEvent[msg.sender] == false);\n      \n      thisBigTransfers.TransferEvent[msg.sender] = true;\n      if(thisBigTransfers.TransferEvent[addressAdminAirnext] == true && thisBigTransfers.TransferEvent[addressTokenSale] == true \n          || thisBigTransfers.TransferEvent[addressTeam] == true && thisBigTransfers.TransferEvent[addressTokenSale] == true \n          || thisBigTransfers.TransferEvent[addressTeam] == true && thisBigTransfers.TransferEvent[addressAdminAirnext] == true)\n          {\n                    thisBigTransfers.completed = true; \n          }\n          \n       else {\n                     thisBigTransfers.completed = false; \n       } \n       \n      currState = State.VALIDATED;\n      return true;\n    }\n  \n    \n    function refuseTransfer(uint _index) public returns(bool){\n     Latency storage thisBigTransfers = BigTransfers[_index];\n      \n       require (msg.sender == addressAdminAirnext || msg.sender == addressTokenSale || msg.sender == addressTeam);\n       thisBigTransfers.TransferEvent[msg.sender] = false;\n       \n       if(thisBigTransfers.TransferEvent[addressAdminAirnext] == false && thisBigTransfers.TransferEvent[addressTokenSale] == false \n          || thisBigTransfers.TransferEvent[addressTeam] == false && thisBigTransfers.TransferEvent[addressTokenSale] == false\n          || thisBigTransfers.TransferEvent[addressTeam] == false && thisBigTransfers.TransferEvent[addressAdminAirnext] == false){\n              \n          thisBigTransfers.completed = false;\n        }\n       \n       currState = State.REJECTED;\n       return true; \n    }\n  \n  \n  \n    function createTransferLatency(address _sender, address payable _recipient, uint256 _amount) public returns(bool) {\n      Latency storage newBigTransfers = BigTransfers[index++];\n          require(_balances[_sender] > 0 && _balances[_sender] > _amount); // Changement en internal pour la variables _balances dans le contrat ERC20\n          require(_amount >= _threshold);\n          require(msg.sender == _sender);\n          \n          newBigTransfers._sender = _sender;\n          newBigTransfers._recipient = _recipient;\n          newBigTransfers._amount =  _amount;\n          newBigTransfers.completed = false;\n          newBigTransfers.loading = block.timestamp + 86400  ; // 24h\n          \n          currState = State.PENDING;\n          return true;\n    }\n    \n    function transferLatency(uint _index) public returns(bool){\n          Latency storage thisBigTransfers = BigTransfers[_index];\n          \n          require(thisBigTransfers._sender == msg.sender);\n          require(_balances[msg.sender] > 0 && _balances[msg.sender] > thisBigTransfers._amount);\n          \n          if(thisBigTransfers.completed == true || thisBigTransfers.loading < block.timestamp && thisBigTransfers.completed == true){\n              \n              \n            _balances[thisBigTransfers._recipient] += thisBigTransfers._amount; // balances[to] = balances[to] + tokens\n            _balances[thisBigTransfers._sender] -= thisBigTransfers._amount; // balances[to] = balances[to] + tokens\n              \n              emit Transfer(thisBigTransfers._sender, thisBigTransfers._recipient,thisBigTransfers._amount);\n              currState = State.VALIDATED;\n              \n          }\n              \n          else {\n              currState = State.REJECTED;\n          }\n          \n          return true;\n          \n    }\n      \n  \n}\n",
  "sourcePath": "/home/app/AirnextTest/contracts/contracts/AirnextToken.sol",
  "compiler": {
    "name": "solc",
    "version": "0.8.0+commit.c7dfd78e.Emscripten.clang"
  },
  "schemaVersion": "3.4.0",
  "updatedAt": "2021-09-15T21:45:15.820Z",
  "networkType": "ethereum",
  "devdoc": {
    "kind": "dev",
    "methods": {
      "allowance(address,address)": {
        "details": "See {IERC20-allowance}."
      },
      "approve(address,uint256)": {
        "details": "See {IERC20-approve}. Requirements: - `spender` cannot be the zero address."
      },
      "balanceOf(address)": {
        "details": "See {IERC20-balanceOf}."
      },
      "decimals()": {
        "details": "Returns the number of decimals used to get its user representation. For example, if `decimals` equals `2`, a balance of `505` tokens should be displayed to a user as `5,05` (`505 / 10 ** 2`). Tokens usually opt for a value of 18, imitating the relationship between Ether and Wei. This is the value {ERC20} uses, unless this function is overridden; NOTE: This information is only used for _display_ purposes: it in no way affects any of the arithmetic of the contract, including {IERC20-balanceOf} and {IERC20-transfer}."
      },
      "decreaseAllowance(address,uint256)": {
        "details": "Atomically decreases the allowance granted to `spender` by the caller. This is an alternative to {approve} that can be used as a mitigation for problems described in {IERC20-approve}. Emits an {Approval} event indicating the updated allowance. Requirements: - `spender` cannot be the zero address. - `spender` must have allowance for the caller of at least `subtractedValue`."
      },
      "increaseAllowance(address,uint256)": {
        "details": "Atomically increases the allowance granted to `spender` by the caller. This is an alternative to {approve} that can be used as a mitigation for problems described in {IERC20-approve}. Emits an {Approval} event indicating the updated allowance. Requirements: - `spender` cannot be the zero address."
      },
      "name()": {
        "details": "Returns the name of the token."
      },
      "setMinimumThreshold(uint256)": {
        "details": "setMinimumThreshold allows smart contract heritage of modification of threshold"
      },
      "symbol()": {
        "details": "Returns the symbol of the token, usually a shorter version of the name."
      },
      "totalSupply()": {
        "details": "See {IERC20-totalSupply}."
      },
      "transfer(address,uint256)": {
        "details": "See {IERC20-transfer}. Requirements: - `recipient` cannot be the zero address. - the caller must have a balance of at least `amount`."
      },
      "transferFrom(address,address,uint256)": {
        "details": "See {IERC20-transferFrom}. Emits an {Approval} event indicating the updated allowance. This is not required by the EIP. See the note at the beginning of {ERC20}. Requirements: - `sender` and `recipient` cannot be the zero address. - `sender` must have a balance of at least `amount`. - the caller must have allowance for ``sender``'s tokens of at least `amount`."
      }
    },
    "version": 1
  },
  "userdoc": {
    "kind": "user",
    "methods": {},
    "version": 1
  }
}